:020000040000FA
:10000000D00900202502000065020000090200005E
:10001000690200006B0200006D0200000000000099
:100020000000000000000000000000006F0200005F
:100030007102000000000000730200007502000061
:1000400077020000770200007702000077020000CC
:1000500077020000770200007702000077020000BC
:1000600077020000770200007702000077020000AC
:10007000770200007702000077020000770200009C
:10008000770200007702000077020000770200008C
:10009000770200007702000077020000770200007C
:1000A000770200007702000077020000770200006C
:1000B000770200007702000077020000770200005C
:1000C00077020000F51800007702000077020000B8
:1000D0002919000077020000770200007702000073
:1000E000770200007702000077020000770200002C
:1000F000770200007702000077020000770200001C
:10010000770200007702000077020000770200000B
:1001100077020000770200007702000077020000FB
:1001200077020000770200007702000077020000EB
:1001300077020000770200007702000077020000DB
:1001400077020000770200007702000077020000CB
:1001500077020000770200007702000077020000BB
:1001600077020000770200007702000077020000AB
:10017000770200007702000077020000770200009B
:10018000770200007702000077020000770200008B
:10019000770200007702000077020000770200007B
:1001A000770200007702000077020000770200006B
:1001B000770200007702000077020000770200005B
:1001C000770200007702000077020000770200004B
:1001D000770200007702000077020000770200003B
:1001E000770200007702000077020000770200002B
:1001F00077020000DFF80CD000F08CF800480047D0
:1002000053210000D009002004207146084202D08A
:10021000EFF3098001E0EFF308807146004A1047D0
:10022000C108000014484FF0590101604FF0160159
:1002300001604FF0880101601048416841F480413D
:1002400041600F48416841F002014160416841F05E
:10025000040141600B48804707484FF000010160EE
:1002600009480047FEE7FEE7FEE7FEE7FEE7FEE798
:10027000FEE7FEE7FEE7FEE7000100400002004067
:100280000070004019170000F501000040EA01036A
:100290009B0703D009E008C9121F08C0042AFAD23C
:1002A00003E011F8013B00F8013B521EF9D2704700
:1002B0002DE9F05F0546002092469B46884606469B
:1002C000814640241BE0284641464746224600F02E
:1002D00042F853465A46C01A914110D31146184667
:1002E000224600F029F82D1A67EB01084F462246F6
:1002F0000120002100F020F817EB00094E41201EDC
:10030000A4F10104DFDC484631462A464346BDE8F5
:10031000F09F0000064C074D06E0E06840F0010346
:1003200094E8070098471034AC42F6D3FFF766FF15
:1003300098230000B8230000202A04DB203A00FAAA
:1003400002F1002070479140C2F1200320FA03F32C
:10035000194390407047202A04DB203A21FA02F02A
:100360000021704721FA02F3D040C2F120029140EF
:100370000843194670474FF08040D0F8401241F4CE
:100380008031C0F84012704700F01F0201219140F7
:10039000034A800F02EB800002680A430260704744
:1003A000040200402DE9F84F0D460446FFF7E3FF35
:1003B0004FF08040484ED0F80012C4B141F0040123
:1003C000C0F80012102000F023FA4FF40020009033
:1003D000424843492844B34688426DD84FF000094B
:1003E0004FF0FF324F464E46AE46012015E041F039
:1003F0000101C0F80012012000F00AFA0020E6E72F
:10040000F2B3032839D0042802D0022805D102E033
:100410004FEA8E0501E04FEA4E0502236AB3BBFBAB
:10042000F3F1304CDFF8BCC00C44CCF1000C644557
:1004300020D80224C1F35D0ADFF8A0C00AFB04F152
:1004400001EB0C08DFF8A0C0E0450ED8B1EB950F2A
:1004500002D9A1EB950101E0C1EB9501914204D2D3
:100460000A0099462746064604D040F20121641C42
:100470008C42E1D95B1C202BD0D9401C042800E021
:1004800000E0BDD91948009900EB8630184A0843AE
:1004900002EB49210843B91E08434FF08041C1F8DF
:1004A0004002042000F0B4F906FB09F6BBFBF6F0AD
:1004B00078434000BDE8F88F5CB10E494FF08040B2
:1004C000C0F84012042000F0A3F9BDE8F84F00F096
:1004D000A7B844F21E21F1E7001BB700800F05FD0D
:1004E0008074D21A00F7C2FFC068780400C0FFFF12
:1004F00000FEFFFF1E4208004FF08041D1F80022AD
:100500000243C1F80022704710B501F0E1F801483C
:10051000006810BD0000002010B501F0D9F80148B6
:10052000006810BD000000204FF08040D0F80002AD
:10053000C00700D000487047001BB7004FF0804054
:10054000D0F80002800702D54FF400407047002029
:100550007047000010B501F0BBF84FF08041D1F8B2
:1005600034024207134817D0D1F8342202F00702B0
:10057000012A13D0D1F8342202F00702022A10D047
:10058000D1F8342202F00702032A0DD0D1F8341238
:1005900001F0070104290AD0006810BD0068400876
:1005A00010BD0068800810BD0068C00810BD00685C
:1005B000000910BD0000002010B501F089F84FF0CF
:1005C0008041D1F8340210F0700F144817D0D1F8E0
:1005D0003422C2F30212012A13D0D1F83422C2F31A
:1005E0000212022A10D0D1F83422C2F30212032AD6
:1005F0000DD0D1F83412C1F3021104290AD00068D9
:1006000010BD0068400810BD0068800810BD00687B
:10061000C00810BD0068000910BD000000000020E7
:1006200008B510A10020096800914FF08041D1F871
:10063000401211F4A02F13D10B488A0310D4C1F338
:100640000800C1F38132094B801C1DF80220C1F360
:1006500044215843491C11FB02F1B0FBF1F0C000EA
:1006600008BD000001020204001BB700C0C62D0037
:1006700070B54FF080440646D4F8500200F01005E3
:100680001B48864200D90646D4F8000240F0040018
:10069000C4F80002102004F5007400F0B9F82069D5
:1006A00040F007002061206A20F00F0020622068DF
:1006B000A4F50074C007314604D00020FFF772FE95
:1006C000064608E04FF40020FFF76CFE0646D4F81B
:1006D000500200F010050021022000F00BF82DB9A7
:1006E000D4F8000220F00400C4F80002304670BDC7
:1006F00000B0710B2DE9F0414FF080440746D4F86B
:1007000050020E4600F01005D4F8000240F004003C
:10071000C4F80002102004F5007400F079F8206994
:1007200040F007002061206A20F00F003043206273
:10073000206920F0070038432061A4F5007400F020
:10074000C7FF002D05D1D4F8000220F00400C4F842
:100750000002BDE8F0810000F0B510F47F3F2ED01C
:100760004FF08043D3F8F431DFF878C0DFB21D4B8F
:10077000C0F381440C3B6FEA90450CF1040603EB97
:100780008403012F02D0022C0DD001E0022C02D0F4
:10079000AC070AD00AE0C343DC06134B06D000F0D6
:1007A0001F041D2C02D0634600E033461C68C0F3D2
:1007B0008725C0F34416B540AC4314431C60420E79
:1007C00052070ED0084BC0F30172183B03EB8202B4
:1007D0001368C0F34264C0F304508440A3430B4346
:1007E0001360F0BD2C020040280200400749096850
:1007F00048434FF0E021486100228A6105200861EA
:100800000869C003FCD50A6170470000040000209D
:1008100030B5012405460849A20705E0081EA1F1EC
:10082000010101DC002404E0D2F8503235EA030073
:10083000F4D1204630BD000080F5200010B5094CF1
:1008400001221146204600F00FF801220221204625
:1008500000F00AF820460122BDE81040042100F013
:1008600003B80000C0410040F0B500230127032574
:1008700007FA03F48C4309D106685C0005FA04FC0E
:1008800026EA0C0602FA04F4264306605B1C102BD1
:10089000EED3F0BDF0B500230127032507FA03F4DA
:1008A0000C4209D0866A5C0005FA04FC26EA0C06B4
:1008B00002FA04F4264386625B1C102BEED3F0BDD3
:1008C000044603A001F0EEF9204601F05DFCFEE7CE
:1008D000496E2048617264204661756C74204861DD
:1008E0006E646C65720A00000FB583B09DF80C0051
:1008F000FF281DD00F489DF80C10405C00900D485B
:100900009DF80C104030405C01900A489DF80C1096
:100910008030405C9DF8101002900748009A815486
:100920009DF81410019A81549DF81810029A815470
:1009300007B000BDC02200004C000020F8B53A49C5
:1009400006460120086046F2A810FFF74FFF00237B
:100950001A460321304600F0DFFCAA2313220321AC
:10096000304600F0D9FC002314220321304600F069
:10097000D3FC042315220321304600F0CDFCC02314
:1009800016220321304600F0C7FC00231A2203215F
:10099000304600F0C1FC0025244C009500982554F9
:1009A0000098401C00904828F8D3002248231146A4
:1009B000304600F001FD0095009825540098401C39
:1009C0000090C028F8D3C02300220121304600F057
:1009D000F3FC802121706170A170E170217161715F
:1009E000A171E17121726172A172E1720C23002286
:1009F0000421304600F0E0FCFF200095009960548F
:100A00000099491C00911829F8D300224823114667
:100A1000304600F0D1FC01B03046BDE8F040012383
:100A20000022032100F078BCB84800404C000020B0
:100A30002DE9F0471D4616468846002381461A4692
:100A4000032100F069FC154A15490020135C0B5482
:100A5000401C1828FAD3002248231146484600F0CB
:100A6000ABFC012300220321484600F055FC0D4F4A
:100A700000242B46385D32464146FFF735FF641CA3
:100A8000402CF6D3C02300220121484600F094FCFC
:100A9000BDE8F0473C20FFF7A9BE0000802300001E
:100AA0004C000020802200002DE9F0470023824600
:100AB0001A46032100F030FC0020784EFF24345405
:100AC000401C1828FBD3002248231146504600F052
:100AD00073FC012300220321504600F01DFC002777
:100AE000DFF8BC913D4600203554401CC028FBD3A4
:100AF00047B3791EF8B2C9B202090BD00322B2EB98
:100B0000101F07D00622B2EB101F03D00922B2EB50
:100B1000101F10D130281ED060281CD090281AD069
:100B200075543454C02300220121504600F044FC87
:100B30004846FFF75BFE7F1CC02FD4D300274FF041
:100B4000010837E03146002001F89F5F0D7486F8F8
:100B5000BF500146D0E7314401F8205CE1E74FB3D4
:100B6000791EF8B2C9B2B8EB101F0BD00422B2EB59
:100B7000101F07D00722B2EB101F03D00A22B2EBDE
:100B8000101F10D140281ED070281CD0A0281AD0C9
:100B900075543454C02300220121504600F00CFC4F
:100BA0004846FFF723FE7F1CC02FD8D300274FF005
:100BB000020865E086F89F5086F8AF50002086F85E
:100BC000BF500146CFE7314401F8205CE1E7EFB3C5
:100BD000791EF8B2C9B2B8EB101F0BD00522B2EBE8
:100BE000101F07D00822B2EB101F03D00B22B2EB6C
:100BF000101F10D150284CD080284AD0B02848D09F
:100C000075543454C02300220121504600F0D4FB17
:100C10004846FFF7EBFD7F1CC02FD8D300254FF4CB
:100C20007A7700240020E1B23154401CC028FBD365
:100C3000C02300220121504600F0BEFB3846FFF7DA
:100C4000D5FD641CFF2CEDD9002400E018E0C4F1B0
:100C5000FF010020C9B23154401CC028FBD3C0237F
:100C600000220121504600F0A7FB3846FFF7BEFDE9
:100C7000641CFF2CE9D96D1C032DD2D3BDE8F0878D
:100C800086F89F5086F8AF50002086F8BF50014686
:100C9000A1E7314401F8205CB3E700004C000020DC
:100CA000A08601002DE9F14F00231A460321009888
:100CB00000F032FB6C496D4D00200A5C2A54401C48
:100CC0001828FAD3002248231146009800F074FB3C
:100CD000012300220321009800F01EFB0024DFF80E
:100CE0009091644FA046002041462954401CC028E2
:100CF000FBD3ECB1601EE6B2C0B20023385C1A46EA
:100D00001946FFF7F1FD0022FF211346B85DFFF7FA
:100D1000EBFDC02300220121009800F04DFB4E4660
:100D20004846FFF763FD641C402CDCD3002426E01A
:100D300000231A4619463F20FFF7D6FD002006463D
:100D4000DBE7E4B1601EE5B2C0B20023385C1A46AE
:100D50001946FFF7C9FD0021FF220B46785DFFF71A
:100D6000C3FDC02300220121009800F025FB30467E
:100D7000FFF73CFD641C402CE3D300246BE0002310
:100D80001A4619463F20FFF7AFFD00200546DCE775
:100D9000002C60D0601EE5B2C0B20023385C1A4659
:100DA0001946FFF7A1FD00210A46FF23785DFFF7F2
:100DB0009BFDC02300220121009800F0FDFA30467F
:100DC000FFF714FD641C402CE2D3002600244FF4EE
:100DD0007A7804F0FF0904F0FF0A04F0FF0B002505
:100DE0005B46785D52464946FFF77EFD6D1C402DFF
:100DF000F6D3C02300220121009800F0DDFA454619
:100E00004046FFF7F3FC641CFF2CE2D90024AB46FC
:100E1000C4F1FF0000F0FF0900F0FF0800F0FF0A36
:100E200000255346785D42464946FFF75DFD6D1C3F
:100E3000402DF6D3C02300220121009800F0BCFA17
:100E40005846FFF7D3FC641CFF2CE1D9761C032E17
:100E5000BCD3BDE8F88F00231A4619463F20FFF7A0
:100E600043FD0020054698E7802300004C00002049
:100E7000A0860100802200002DE9F05F0023834658
:100E80001A46032100F048FA2A492B4A00200B5C3D
:100E90001354401C1828FAD3002248231146584600
:100EA00000F08AFA012300220321584600F034FAA8
:100EB000224F0026002404F0FF0A04F0FF0904F08A
:100EC000FF0800254346785D4A465146FFF70CFD72
:100ED0006D1C402DF6D3C02300220121584600F09E
:100EE0006BFA3C20FFF782FC641CFF2CE3D9002442
:100EF000C4F1FF0000F0FF0A00F0FF0900F0FF0856
:100F000000254346785D4A465146FFF7EDFC6D1CCF
:100F1000402DF6D3C02300220121584600F04CFAA0
:100F20003C20FFF763FC641CFF2CE1D9761CC1D088
:100F3000BDE8F09F802300004C00002080220000CC
:100F400000F01F02012191404009800000F1E020E3
:100F5000C0F800117047000070B50022094D01264D
:100F6000134606FA02F40C4203D000EB021423608D
:100F7000AB54521C102AF4D3D0F800240A43C0F812
:100F8000002470BD3C00002000EB0110016821F03E
:100F90007401016001681A4311430160704730B564
:100FA00000EB0110DDE9034542608460016821F433
:100FB0007061016001682B431943016030BD00007E
:100FC00010B500EB011001684CF6FF742140016080
:100FD0000168034C04EB034313431943016010BD44
:100FE0000000FFFF30B54D4D039C10296A547DD29F
:100FF000DFE801F008101720272F363F464E555ED8
:10100000656D7489D0F8805425F07F051543C0F8CC
:1010100080546BE0D0F8805425F4FE4545EA022266
:1010200005E0D0F8805425F4FE0545EA0242C0F8F8
:1010300080245BE0D0F8805425F0FE4545EA02624A
:10104000F5E7D0F8845425F07F051543C0F88454A3
:101050004CE0D0F8845425F4FE4545EA022205E030
:10106000D0F8845425F4FE0545EA0242C0F88424F1
:101070003CE0D0F8845425F0FE4545EA0262F5E7ED
:10108000D0F8885425F07F051543C0F888542DE02A
:10109000D0F8885425F4FE4545EA022205E0D0F850
:1010A000885425F4FE0545EA0242C0F888241DE074
:1010B000D0F8885425F0FE4545EA0262F5E7D0F8FD
:1010C0008C5425F07F051543C0F88C540EE0D0F801
:1010D0008C5425F4FE4545EA022205E0D0F88C54F4
:1010E00025F4FE0545EA0242C0F88C2400EB01100D
:1010F000016821F003016BB1891C0160084909688E
:10110000611AC16030BDD0F88C5425F0FE4545EA27
:101110000262E9E7491C016030BD00003C0000208C
:101120003C8400402DE9F0470446089D006E1F46B0
:101130009246894620F001002066202B00D100272E
:10114000FFF7EAF9714ADFF8C0C1714B5104064656
:101150004FF00008B9F1000F13D0C4F8088049EA35
:10116000072040EA0A0040F001002060C4F8048033
:1011700064457DD1D1F8180220F0300040F0200005
:10118000B2E0C4F8088048EA072040EA0A0040F0CC
:1011900001002060B54220D3644506D1D1F8180281
:1011A00020F0300040F0200015E0944206D1D1F844
:1011B000180220F0C00040F080000CE0D1F81802C6
:1011C0009C4204D120F4406040F4006003E020F42D
:1011D000405040F40050C1F818024E4864450FD109
:1011E000D1F8182212F0300F48D0D1F81822C2F3EB
:1011F0000112012A3DD0D1F81812C1F3011122E0E9
:1012000094420FD1D1F8182212F0C00F36D0D1F885
:101210001822C2F38112012A2BD0D1F81812C1F37F
:10122000811122E0D1F818229C4211D112F4406FB2
:1012300024D0D1F81822C2F38122012A19D0D1F882
:101240001812C1F38121022918D1FFF7B5F915E071
:1012500012F4405F12D0D1F81822C2F30132012AF1
:1012600007D0D1F81812C1F30131022904D005E0EA
:1012700029E0FFF7D5F901E0FFF76CF9B54201D29B
:10128000854203D3C4F80480BDE8F08740F2FF1222
:101290005DB100EB80014900B1FBF5F10A23491D66
:1012A000B1FBF3F1491EFF2904D961681143616064
:1012B000000AE9E762686FF308020A436260491CAA
:1012C000B0FBF1F0E0E7944206D1D1F8180220F02B
:1012D000C00040F0800011E0D1F818029C4209D112
:1012E00020F4406040F40060C1F81802BDE8F04707
:1012F000FFF762B920F4405040F40050C1F81802E2
:10130000BDE8F047FFF726B9001006400020064070
:1013100000300640001BB7002DE9F8439946224BE8
:10132000214D224E1C1D1435371F4FF0000C05288F
:1013300012D2DFE800F00306090C0F00C3F800C06A
:101340000AE0C4F800C007E0C5F800C004E0C6F831
:1013500000C001E0C7F800C0154841F0200101625B
:101360000262C0F820904169C907FCD111490A788E
:101370000121052A0DD2DFE802F0030507090B0061
:10138000196006E0216004E0296002E0316000E0BD
:101390003960016B8DF80010016B8DF80010006B47
:1013A0008DF80000BDE8F88318480040444900402B
:1013B000001006403000002078B4164600220528B0
:1013C00009D2DFE800F003051E212300114C01E0E3
:1013D000104C241D2260104C6569ED07FCD141F0D2
:1013E0002001216226626169C907FCD1216B8DF859
:1013F0000010216B8DF800101A4678BC074900F0E8
:10140000F5B8044C1434E5E7054CE3E7044C241F1D
:10141000E0E7000018480040001006404C000020A3
:101420004449004070B55920840716218822C4F829
:101430000001C4F80011C4F80021D4F80031002BD9
:10144000F5D04FF04025D5F8400120F0F000C5F868
:1014500040010D20FFF750F81920FFF7D9F928486F
:10146000FFF706F91120C4F83402264E3046FEF785
:101470008BFF00224FF040713046FFF76DF9E06BB3
:1014800020F47F00E063E06B40F4CC00E0631E4E8C
:10149000002230213046FFF75FF93046FEF774FF37
:1014A0000120FEF771FF194E3046FEF76DFF002256
:1014B0004FF4E0613046FFF74FF9154E3046FEF726
:1014C00063FF00224FF4E0413046FFF745F900F09A
:1014D000FFF8206B6FF30B002063206B40F2444158
:1014E00008432063686A40F0070068620222062110
:1014F0002846FFF7CFF90020C4F8000170BD0000B6
:1015000000B0710B103D80570D0040660200805EF8
:101510000300C05E0121044A814002EB10600268B2
:101520000A438A43026070470800004006498A69FE
:101530001202FCD40A2804D10D220A608A69120220
:10154000FCD40860704700000000074038B524480C
:1015500000900823042200212248FFF7E3FD5920D0
:10156000840716218822C4F80001C4F80011C4F8C9
:101570000021D4F80031002BF5D0206B20F07060F2
:101580002063206B20634FF0402501224021284634
:10159000FFF76AF9206B20F070402063206B206316
:1015A000012280212846FFF75FF9606B20F470402C
:1015B0006063606B60630122D1022846FFF754F933
:1015C000606C20F070606064606C60640122910364
:1015D0000548FFF749F90020C4F8000138BD0000B4
:1015E000400D030000100640804000402DE9FC4102
:1015F000314E884605464FF4805417462146304602
:10160000FFF7AAFC3B4600220C213046FFF7D8FC2E
:101610004FF440612948CDE90001002342460C21E6
:101620003046FFF7BCFC00200346009016220C2138
:101630003046FFF7D7FC002304220C213046FFF789
:10164000A3FC56F8C00F40F0800030601B492039E1
:10165000C86840F00100C860194B19480833026897
:101660009607FCD51E68F6041ED51C60C86820F0DD
:101670000100C8604FF4FA71124800F0A1F801208F
:10168000052D17D2DFE805F00305080B0D000E4904
:101690000FE00D49091D0CE00B49143109E00B491D
:1016A00007E00A49091F04E0D207D8D00449091D00
:1016B00008680860BDE8FC810080004020100640FA
:1016C0001C84004000000540184800404449004088
:1016D00010B5FEF7A5FF0E4A4FF080439060D3F897
:1016E000101201F00701022903D002F10C0050F89A
:1016F0002100D3F8201201F00F01491CB0FBF1F0DA
:101700000449106008444900B0FBF1F0506010BD7E
:101710000000002020A107001A48016841F4700170
:1017200001601948C16C21F00F0141F00801C1644A
:101730004FF08040D0F8981241F48021C0F8981200
:10174000D0F8081241F00201C0F808120F49D1F890
:10175000042102F0F732C1F80421D1F8082102F087
:10176000F732C1F80821D0F8081221F00201C0F8C0
:1017700008124FF04020D0F8401121F0F001C0F8DD
:101780004011704788ED00E000C0004000100440A8
:1017900010B50A4C4FF47A724FF00061204600F009
:1017A0008DF8206840F0005020602120FFF7C8FB32
:1017B000206840F08040206010BD0000000105401E
:1017C00070B50C46054600F03DF81B49002209683B
:1017D0002A60B1FBF0F16A61184B491C984205D8A8
:1017E0004FF47A76B44205D2344606E0642C01D236
:1017F000642402E09C4200D91C46984208D8104B51
:10180000B3FBF0F04FF47A735C43B4FBF0F007E005
:10181000B0FBF3F06043020E02D0531CB0FBF3F0B8
:10182000686042F08040286011B100BF491EFCD1C1
:1018300028688001FCD470BD0000002040420F00E9
:1018400000CA9A3B10B588B0044620221749684662
:10185000FEF71CFD164A174B9003944204D1D0F8B2
:101860001402C0F3022110E09C4204D1D0F814020B
:10187000C0F3023109E01049D0F814028C4202D1C1
:10188000C0F3024101E0C0F30251022903D05DF828
:10189000210008B010BD944201D09C4202D1FEF755
:1018A00059FEF6E7FEF788FEF3E70000602200002D
:1018B00000000540000105400010054070B51646C7
:1018C0000D460446FFF7BEFF0023B6EB500F01D9CB
:1018D000022206E0B0FBF6F2130E02D0591CB2FB56
:1018E000F1F21D43256062605B1C5A43B0FBF2F0CD
:1018F00070BD00000A488168C1F3000100290ED0C4
:101900000121816007490888421C0A80B0F57A7F6E
:1019100005D900200880486840F0080048607047FA
:10192000000105403400002010B50B4CE06910F4B4
:10193000885F02D104E000F049F9A1694904FAD5B1
:10194000A169204611F0710F05D0BDE810404FF499
:10195000105100F087B810BD0000074010B51E48B8
:10196000FFF7D8FD1D4C4FF4E131204600F098F808
:101970001421204600F020F9A06820F01000A0609B
:10198000A06840F02000A060606840F611010843A4
:1019900060602420FFF7D4FAFEF7B6FD014610A0E0
:1019A00000F080F9FEF7C0FD014614A000F07AF9BE
:1019B000FEF7C4FD014617A000F074F9FEF7CAFD5A
:1019C00001461AA000F06EF9FEF7F6FD0146BDE8EB
:1019D00010401DA000F066B9100000040000074090
:1019E0000D0A434C4B5F4765744350554672657111
:1019F000203A202538640D0A00000000434C4B5F5C
:101A000047657448585446726571203A20253864F9
:101A10000D0A0000434C4B5F4765744C58544672A6
:101A20006571203A202538640D0A0000434C4B5F55
:101A300047657450434C4B3046726571203A2025FF
:101A400038640D0A00000000434C4B5F476574503A
:101A5000434C4B3146726571203A202538640D0A9B
:101A6000000000004A0503D57022826108228261CD
:101A70000A0503D5426942F0010242618A0401D598
:101A8000064A82614A0401D51F224264090404D532
:101A90008021C16140F20F31816370470100000174
:101AA0002DE9FF4104463C480F4600250FC88DE84C
:101AB0000F003A492E464FF080408C4206D1D0F8B4
:101AC0001412D0F82002C1F301652AE034498C4297
:101AD00006D1D0F81412D0F82002C1F381652BE0B2
:101AE00030498C4208D1D0F81C12D0F83002C1F332
:101AF000016500F00F0621E02B498C4208D1D0F897
:101B00001C12D0F83002C1F38165C0F3031615E052
:101B100026498C4208D1D0F81C12D0F83002C1F30B
:101B20000175C0F3032609E021498C4206D1D0F8A3
:101B30001C12D0F830028D0FC0F303360020206352
:101B40000320E060A0681B490840A060E846012D22
:101B500002D1FEF765FD0190002F1AD058F825102C
:101B6000761CB1FBF6F000EB5700B0FBF7F0801EDF
:101B7000B0F5803F0AD3B1FBF6F000EBC700B0FB35
:101B8000F7F06FF0010101EB101001E040F0405060
:101B90006062BDE8FF8100003022000000000740C5
:101BA0000010074000200740003007400040074079
:101BB000005007400FFFF0FF026A22F0FF020A43C5
:101BC0000262416841F40061416070472D4800683D
:101BD000C0B27F2802D92CA000F064B8612839D0A7
:101BE00014DC462842D008DCA0F14100052848D288
:101BF000DFE800F0303336391700472839D0512854
:101C000039D0582819D05A283BD116E066282DD053
:101C10000BDC622821D0632822D0642823D06528D9
:101C20002FD100231A46FF2128E0672821D07128F0
:101C300021D0782801D07A2823D1BFF34F8F1748BD
:101C40000168174A01F4E06111430160BFF34F8F4F
:101C500000BFFDE70020FEF727BF0020FFF722B8F6
:101C60000020FFF709B9FF231A46DCE70023FF2213
:101C700003E0FF2300E00023002200210020FEF704
:101C8000D7BE704700000740696E76616C696420BA
:101C9000636F6D6D616E640D0A0000000CED00E075
:101CA0000400FA050FB4054B10B503A9044A0298C5
:101CB00000F018F810BC5DF814FB0000472100008C
:101CC0002C00002002E008C8121F08C1002AFAD127
:101CD00070477047002001E001C1121F002AFBD1AC
:101CE000704700002DE9FF4F8DB00F4605460026D6
:101CF00006E025280BD0DDE90F1290476D1C761CFD
:101D000028780028F5D111B03046BDE8F08F0024C6
:101D1000A246A1460122EC4900E0044315F8013F28
:101D2000203B02FA03F00842F7D128782A2810D085
:101D30006FF02F022878A0F13001092914D80AEB9E
:101D40008A0102EB410144F0020400EB010A6D1C20
:101D5000F0E701CF5FEA000A03D544F40054CAF16A
:101D6000000A44F002046D1C28782E2817D115F8BB
:101D7000010F44F004042A280ED06FF02F022878B7
:101D8000A0F1300109290AD809EB890102EB4101D0
:101D900000EB01096D1CF2E757F8049B6D1C2878D5
:101DA0006C280FD006DC4C2817D068280DD06A2884
:101DB00014D104E0742810D07A280FD10DE044F437
:101DC00000140AE044F4801401E044F440146978FB
:101DD000814202D104F580146D1C6D1C2A786E2A94
:101DE0001FD00CDC632A31D004DC002A8BD0582AA7
:101DF00011D1A3E0642A68D0692A0CD165E0732A66
:101E00002ED004DC6F2A73D0702A04D19BE0752A8F
:101E10006FD0782A6ED01046DDE90F129047761CFD
:101E200050E1C4F30250022806D0032809D0042848
:101E300001CF09D0066045E101CFF117C0E900618B
:101E400040E101CF06803DE106703BE117F8040B4D
:101E50008DF8000000208DF80100EB46012003E022
:101E600057F804BB4FF0FF3061074FF0000102D478
:101E70000DE008F10101884649450FDA8045F8DB9D
:101E80001BF808100029F4D108E008F10101884688
:101E90008142FADB1BF808100029F6D1DDE90F2397
:101EA000AAEB08008146214600F036F9304400EBE9
:101EB000080604E0DDE90F121BF8010B9047B8F1AA
:101EC0000108F7D221464846F7E00A21C4F302533D
:101ED0004FF0000B0891022B04D001CFC117032B48
:101EE00009D00AE0FF1D27F00707F7E8020108E024
:101EF00032E01FE020E000B2C117042B01D140B254
:101F0000C117031E71F1000307DA4FF0000CD0EB8C
:101F10000C006CEB01012D2302E0230504D52B23DB
:101F20008DF82430012303E0E30701D02023F7E7F5
:101F3000984658E00A2110E010210EE010204FF0E2
:101F4000000B08900CE010214FF0000B44F004044B
:101F50004FF00809089103E008214FF0000B0891A9
:101F6000C4F30253022B04D001CF0021032B06D06F
:101F700006E0FF1D27F00707F7E8020103E080B243
:101F8000042B00D1C0B24FF0000823072BD5702AD4
:101F900007D0DDF820C08CF0100C5CEA0B0C05D0EB
:101FA0000EE040238DF82430012308E050EA0103BD
:101FB00006D030238DF824308DF825200223984652
:101FC000DDF820C08CF0080C5CEA0B0C0BD150EA59
:101FD000010301D1630706D530238DF824304FF07B
:101FE0000108A9F10109582A04D038A20B9208AAC5
:101FF0000A920BE03AA2F9E75B46089AFEF758F915
:102000000B9B9B5C0A9A521E0A92137050EA0102C3
:10201000F2D10A98ADEB000000F1200B600702D569
:1020200024F4803401E04FF00109D94502DDA9EB29
:102030000B0000E0002000EB0B0141440890AAEBEC
:10204000010AE00306D4DDE90F232146504600F0E3
:1020500063F806444FF0000908E009A911F80900E7
:10206000DDE90F12904709F10109761CC145F4DB47
:10207000E0030CD5DDE90F232146504600F04CF873
:10208000064404E0DDE90F1230209047761C0899E1
:10209000481E08900029F5DC08E00A980A990078A3
:1020A000491C0A91DDE90F129047761CBBF1000133
:1020B000ABF1010BF1DC21465046DDE90F2300F0C6
:1020C00019F806446D1C1BE6092801003031323333
:1020D0003435363738396162636465660000000064
:1020E000303132333435363738394142434445464E
:1020F000000000002DE9F041044600251E46174669
:10210000880404D405E039462020B0476D1C641EC5
:10211000F9D52846BDE8F0812DE9F04104460025B7
:102120001E469046C80301D5302700E020278804CA
:1021300004D505E041463846B0476D1C641EF9D50C
:102140002846BDE8F08110B50446FFF7EFF92046B8
:1021500010BDFFF767F9FFF701FCFEF76FFBFFF714
:1021600017FBFFF7F3F90020FEF7E8FB0120FEF76D
:10217000E5FB0220FEF7E2FB0320FEF7DFFB042075
:10218000FEF7DCFBFEE7000010B50446016810A076
:10219000FFF788FD11A06168FFF784FD12A0A16818
:1021A000FFF780FD13A0E168FFF77CFD14A0216913
:1021B000FFF778FD15A06169FFF774FD16A0A1690E
:1021C000FFF770FDE169BDE8104016A0FFF76ABD9A
:1021D000723020203D20307825780A00723120208E
:1021E0003D20307825780A00723220203D2030785A
:1021F00025780A00723320203D20307825780A00A7
:10220000723132203D20307825780A006C7220200F
:102210003D20307825780A00706320203D203078FA
:1022200025780A00707372203D20307825780A00E6
:10223000001BB7000000000000800000001BB7007A
:10224000001BB7000000000000800000001BB7006A
:10225000001BB7000000000000800000001BB7005A
:10226000001BB7000080000000000000000000001C
:10227000000000001027000000000000001BB70055
:10228000000102030405060708090A0B0C0D0E0FD6
:10229000101112131415161718191A1B1C1D1E1FC6
:1022A000202122232425262728292A2B2C2D2E2FB6
:1022B000303132333435363738393A3B3C3D3E3FA6
:1022C000000102030405060708090A0B0C0D0E0F96
:1022D000303132333435363738393A3B3C3D3E3F86
:1022E000606162636465666768696A6B6C6D6E6F76
:1022F000909192939495969798999A9B9C9D9E9F66
:10230000101112131415161718191A1B1C1D1E1F55
:10231000404142434445464748494A4B4C4D4E4F45
:10232000707172737475767778797A7B7C7D7E7F35
:10233000A0A1A2A3A4A5A6A7A8A9AAABACADAEAF25
:10234000202122232425262728292A2B2C2D2E2F15
:10235000505152535455565758595A5B5C5D5E5F05
:10236000808182838485868788898A8B8C8D8E8FF5
:10237000B0B1B2B3B4B5B6B7B8B9BABBBCBDBEBFE5
:10238000FFFFFFFFFFFFFFFFFFFFFFFFFFFFFFFF5D
:10239000FFFFFFFFFFFFFFFFB8230000000000204A
:1023A0003C000000C41C0000F42300003C0000209E
:1023B00094090000D41C0000001BB7000C000000B2
:1023C000001BB700001BB7000080000000000000E9
:1023D00010270000000000000000000000000000C6
:1023E000001BB7000000000000000000000000001B
:0423F00000000000E9
:0400000500000225D0
:00000001FF
